:100000000C9464010C9471070C9446070C941B0724
:100010000C94F0060C94C5060C949A060C946F068A
:100020000C9444060C9495010C9495010C94950144
:100030000C9495010C9495010C9495010C949501E8
:100040000C9495010C9495010C9495010C949501D8
:100050000C9495010C9495010C9495010C94FA055F
:100060000C9495010C94C4050C949A050C9495017C
:100070000C9495010C9495010C9495010C949501A8
:100080000C9495010C9495010C9495010C94950198
:100090000C9495010C9495010C9495010C94950188
:1000A0000C9495010C9495010C9495010C94950178
:1000B0000C9495010C9495010C9495010C94950168
:1000C0000C9495010C9495010C9495010C94950158
:1000D0000C9495010C9495010C9495010C94950148
:1000E0000C9495010C9497010C94DA0A0C94A204D8
:1000F0000C94D7030C9432040C94EB030C941E0361
:100100000C9427030C945F040C9400030C94E701F7
:100110000C940F040C9451030C9419040C94460491
:100120000C9412030C9405040C942B030C945004AF
:100130000C9416030C944B080C941A030C94210392
:100140000C9439030C94BA040C94FB020C94350300
:100150000C94D3010C94A8040C94E1030C9428048F
:100160000C9447030C94C0040C94C0030C943C04FE
:100170000C943F030C94F5010C94C4010C94CD0332
:100180000C94FB030C94C8030C947A020C94430364
:100190000C942D020C945A040C944D030C943103CE
:1001A0000C94F303000020002300260029002C00FB
:1001B0002F003200000100000301060109010000C8
:1001C0002100240027002A002D0030003300010107
:1001D0000000040107010A01000022002500280098
:1001E0002B002E003100340002010000050108013F
:1001F0000B010505050507050808080802020202AB
:100200000A0A0808040404040101010101010101B2
:100210000303030303030303040707070C0C0C0C7D
:100220000C0C0C0C02020202060606060606060666
:100230000B0B0B0B0B0B0B0B0102102020080810F3
:100240002040102040800201020108040201010246
:10025000040810204080804020100804020180041F
:10026000020180402010080402010804020101027A
:100270000408102040800102040810204080000083
:100280000A0B02090C0D0E08070304010000000010
:10029000000000000000000000000000000000005E
:1002A000000000000000000000001211100000001B
:1002B000000000000000000000000000000000003E
:1002C000000000004B08DA0A11241FBECFEFD1E274
:1002D000DEBFCDBF00E00CBF23E0AAE2B2E001C068
:1002E0001D92A930B207E1F712E0A0E0B2E0E6E12A
:1002F000FBE100E00BBF02C007900D92AA32B107EC
:10030000D9F711E0C3E6D1E000E006C0219701096A
:10031000802FFE010E945B0BC236D10780E00807E8
:10032000A9F70E9487080C94790D0C940000AF92F5
:10033000BF92CF92DF92EF92FF920F931F93CF93D2
:10034000DF936C017B018B01040F151FEB015E0134
:10035000AE18BF08C017D10759F06991D601ED91C9
:10036000FC910190F081E02DC6011995892B79F758
:10037000C501DF91CF911F910F91FF90EF90DF901A
:10038000CF90BF90AF900895FC01538D448D252FE1
:1003900030E0842F90E0821B930B541710F0CF961F
:1003A000089501970895FC01918D828D981761F051
:1003B000A28DAE0FBF2FB11D5D968C91928D9F5F68
:1003C0009F73928F90E008958FEF9FEF0895FC0147
:1003D000918D828D981731F0828DE80FF11D858DFA
:1003E00090E008958FEF9FEF0895FC01918D228D8D
:1003F000892F90E0805C9F4F821B91098F73992712
:1004000008958AE492E00E94F50121E0892B09F425
:1004100020E0822F0895FC01A48DA80FB92FB11DF3
:10042000A35ABF4F2C91848D90E001968F7399272A
:10043000848FA689B7892C93A089B1898C91837008
:1004400080648C93938D848D981306C00288F38901
:10045000E02D80818F7D80830895EF92FF920F932E
:100460001F93CF93DF93EC0181E0888F9B8D8C8D60
:1004700098131AC0E889F989808185FF15C09FB754
:10048000F894EE89FF896083E889F9898081837017
:10049000806480839FBF81E090E0DF91CF911F91C6
:1004A0000F91FF90EF900895F62E0B8D10E00F5FE7
:1004B0001F4F0F731127E02E8C8D8E110CC00FB6BD
:1004C00007FCFACFE889F989808185FFF5CFCE0155
:1004D0000E940B02F1CFEB8DEC0FFD2FF11DE35AC3
:1004E000FF4FF0829FB7F8940B8FEA89FB898081D8
:1004F0008062CFCFCF93DF93EC01888D8823B9F052
:10050000AA89BB89E889F9898C9185FD03C080811E
:1005100086FD0DC00FB607FCF7CF8C9185FFF2CF9B
:10052000808185FFEDCFCE010E940B02E9CFDF91E4
:10053000CF91089580E090E0892B29F00E9401027C
:1005400081110E94000080E090E0892B49F080E05A
:1005500090E0892B29F00E94000081110E94000088
:1005600080E090E0892B49F080E090E0892B29F031
:100570000E94000081110E94000080E090E0892B21
:1005800049F080E090E0892B29F00E940000811161
:100590000C9400000895282F30E0F901E258FD4F37
:1005A0009491F901E85CFD4F44912E503E4FF901C2
:1005B0002491222309F435C0992311F191509231ED
:1005C000F8F4E92FF0E08827E751FD4F8F4F0C94A6
:1005D0005B0B1A031E03FB02120316030003210325
:1005E00027032B033103350339033F034303000380
:1005F00047034D035103809180008F7780938000E3
:10060000E22FF0E0EE0FFF1FE852FE4FA591B491EC
:100610008FB7F894EC91611148C040954E234C93EC
:100620008FBF0895809180008F7DE8CF80918000FA
:10063000877FE4CF84B58F7784BDE2CF84B58F7D8B
:10064000FBCF8091B0008F778093B000D9CF80919D
:10065000B0008F7DF9CF809190008F7780939000CC
:10066000CFCF809190008F7DF9CF80919000877FD0
:10067000F5CF8091A0008F778093A000C1CF8091AB
:10068000A0008F7DF9CF8091A000877FF5CF80916A
:1006900020018F7780932001B3CF809120018F7D3F
:1006A000F9CF80912001877FF5CF4E2BB8CFCF9324
:1006B000DF9390E0FC01E85CFD4F24918E509E4F4B
:1006C000FC0184918823D1F090E0880F991FFC01F0
:1006D000E254FE4FA591B491FC01E852FE4FC59142
:1006E000D491623071F49FB7F8943C91822F809539
:1006F00083238C93E8812E2B28839FBFDF91CF919A
:1007000008958FB7F894EC912E2B2C938FBFF6CFD2
:100710001F93CF93DF93182FEB0161E00E945703E3
:10072000209739F460E0812FDF91CF911F910C94D5
:10073000CB02CF3FD10511F461E0F5CFE12FF0E01E
:10074000E258FD4FE491E150E23108F0B3C0F0E02F
:100750008827E255FC4F8F4F0C945B0BC003C803F6
:10076000CD03D703E1035A04EB03F303FB030504B2
:100770000F041904280432045A043C0446045004AB
:1007800084B5806884BDC7BDDF91CF911F91089566
:1007900084B5806284BDC8BDF7CF80918000806839
:1007A00080938000D0938900C0938800EDCF809122
:1007B0008000806280938000D0938B00C0938A0079
:1007C000E3CF80918000886080938000D0938D007B
:1007D000C0938C00D9CF8091B00080688093B00026
:1007E000C093B300D1CF8091B00080628093B000FD
:1007F000C093B400C9CF809190008068809390002E
:10080000D0939900C0939800BFCF809190008062F0
:1008100080939000D0939B00C0939A00B5CF8091B5
:100820009000886080939000D0939D00C0939C00BE
:10083000ABCF8091A00080688093A0008091A00041
:100840008F7B8093A000D093A900C093A8009CCF79
:100850008091A00080628093A000D093AB00C093F1
:10086000AA0092CF8091A00088608093A000D093CE
:10087000AD00C093AC0088CF809120018068809348
:100880002001D0932901C09328017ECF80912001BF
:10089000806280932001D0932B01C0932A0174CFF2
:1008A00080912001886080932001D0932D01C09316
:1008B0002C016ACFC038D1050CF03ECF33CF08955C
:1008C000DC01ED91FD918081ED91FD919081ED91A3
:1008D000FD916C9163708E2309F064609F2309F091
:1008E0006860EDE7F4E0E60FF11D659565956D93A1
:1008F0006D917D918D919D91099423C01AC012C074
:1009000016C010C01EC009C014C013C006C019C054
:1009100009C00DC007C00DC014C0625070408040B7
:1009200090400BC0615070408040904006C06E5FA8
:1009300001C06F5F7F4F8F4F9F4F9E938E937E932B
:100940006E93089580913402909135020C94600466
:1009500080913202909133020C94600480913002B5
:10096000909131020C94600480912E0290912F029C
:100970000C94600480912C0290912D020C946004E0
:1009800080912A0290912B020C946004FC018081DA
:100990009181009711F00C94FF0B08950F931F9312
:1009A000CF93DF93EC0188819981009759F02A81D8
:1009B0003B812617370730F081E0DF91CF911F91FF
:1009C0000F9108958B016F5F7F4F0E94880C0097F5
:1009D00059F0998388831B830A832C813D81232BC3
:1009E00059F7FC011082E8CF80E0E7CFEF92FF9249
:1009F0000F931F93CF93DF9341155105B1F07B0106
:100A0000EC010C811D81040F151FB8010E94CE045A
:100A1000882361F0288139818C819D81B701820F03
:100A2000931F0E94720D1D830C8381E0DF91CF9193
:100A30001F910F91FF90EF900895EF92FF920F9307
:100A40001F93CF93DF93CDB7DEB72E970FB6F894F1
:100A5000DEBF0FBECDBF7C01CB01BA012AE08E0103
:100A60000F5F1F4FA8010E94050BF80101900020A5
:100A7000E9F73197AF01401B510BB801C7010E9444
:100A8000F6042E960FB6F894DEBF0FBECDBFDF91F1
:100A9000CF911F910F91FF90EF900895CF93DF9327
:100AA0001F921F92CDB7DEB769831A8241E050E0F2
:100AB000BE016F5F7F4F0E94F6040F900F90DF9191
:100AC000CF910895EF92FF920F931F93CF93DF93EF
:100AD000EC017B018A01BA010E94CE042881398190
:100AE000811114C02115310519F0C9010E94FF0BB5
:100AF000198218821D821C821B821A82CE01DF910C
:100B0000CF911F910F91FF90EF9008951D830C835B
:100B1000B701C9010E94720DF1CFFC011182108250
:100B2000138212821582148250E040E069E272E082
:100B30000C9462051F920F920FB60F9211240BB600
:100B40000F922F933F934F935F936F937F938F9366
:100B50009F93AF93BF93EF93FF938AE492E00E9439
:100B60000B02FF91EF91BF91AF919F918F917F9178
:100B70006F915F914F913F912F910F900BBE0F900E
:100B80000FBE0F901F9018951F920F920FB60F92E5
:100B900011240BB60F922F938F939F93EF93FF9394
:100BA000E0915A02F0915B028081E0916002F09145
:100BB000610282FD1DC09081809163028F5F8F73FF
:100BC00020916402821741F0E0916302F0E0E65B5D
:100BD000FD4F958F80936302FF91EF919F918F91CD
:100BE0002F910F900BBE0F900FBE0F901F90189576
:100BF0008081F2CF1F920F920FB60F9211242F9384
:100C00003F938F939F93AF93BF9380913B029091BB
:100C10003C02A0913D02B0913E0230913A0223E0A5
:100C2000230F2D3758F50196A11DB11D20933A02CF
:100C300080933B0290933C02A0933D02B0933E020E
:100C40008091360290913702A0913802B09139021A
:100C50000196A11DB11D8093360290933702A09397
:100C60003802B0933902BF91AF919F918F913F911C
:100C70002F910F900FBE0F901F90189526E8230F0D
:100C80000296A11DB11DD2CF1F920F920FB60F92E7
:100C900011240BB60F922F933F934F935F936F9353
:100CA0007F938F939F93AF93BF93EF93FF93E091C5
:100CB0000E02F0910F021995FF91EF91BF91AF9144
:100CC0009F918F917F916F915F914F913F912F9164
:100CD0000F900BBE0F900FBE0F901F9018951F9294
:100CE0000F920FB60F9211240BB60F922F933F93D2
:100CF0004F935F936F937F938F939F93AF93BF9324
:100D0000EF93FF93E0910C02F0910D021995FF9182
:100D1000EF91BF91AF919F918F917F916F915F9173
:100D20004F913F912F910F900BBE0F900FBE0F90E0
:100D30001F9018951F920F920FB60F9211240BB6A9
:100D40000F922F933F934F935F936F937F938F9364
:100D50009F93AF93BF93EF93FF93E0910202F091C3
:100D600003021995FF91EF91BF91AF919F918F91E0
:100D70007F916F915F914F913F912F910F900BBE9B
:100D80000F900FBE0F901F9018951F920F920FB6E5
:100D90000F9211240BB60F922F933F934F935F93B3
:100DA0006F937F938F939F93AF93BF93EF93FF9333
:100DB000E0910002F09101021995FF91EF91BF912E
:100DC000AF919F918F917F916F915F914F913F91E3
:100DD0002F910F900BBE0F900FBE0F901F90189584
:100DE0001F920F920FB60F9211240BB60F922F93F2
:100DF0003F934F935F936F937F938F939F93AF93A3
:100E0000BF93EF93FF93E0910A02F0910B021995C3
:100E1000FF91EF91BF91AF919F918F917F916F91D2
:100E20005F914F913F912F910F900BBE0F900FBE8E
:100E30000F901F9018951F920F920FB60F921124CA
:100E40000BB60F922F933F934F935F936F937F93C4
:100E50008F939F93AF93BF93EF93FF93E09108021B
:100E6000F09109021995FF91EF91BF91AF919F9178
:100E70008F917F916F915F914F913F912F910F9043
:100E80000BBE0F900FBE0F901F9018951F920F92E0
:100E90000FB60F9211240BB60F922F933F934F93DF
:100EA0005F936F937F938F939F93AF93BF93EF93D2
:100EB000FF93E0910602F09107021995FF91EF91DF
:100EC000BF91AF919F918F917F916F915F914F9162
:100ED0003F912F910F900BBE0F900FBE0F901F9060
:100EE00018951F920F920FB60F9211240BB60F9206
:100EF0002F933F934F935F936F937F938F939F9322
:100F0000AF93BF93EF93FF93E0910402F09105023A
:100F10001995FF91EF91BF91AF919F918F917F9123
:100F20006F915F914F913F912F910F900BBE0F905A
:100F30000FBE0F901F901895833071F120F482300E
:100F4000C1F080E008958231C9F18331D1F7709307
:100F500033026093320288EA94E09093090280930E
:100F60000802809169008F7C806180936900EA9A11
:100F700011C070932B0260932A0280EC94E090934E
:100F800001028093000280916A008C7F81608093CF
:100F90006A00EC9A81E0089570932D0260932C0210
:100FA0008AEB94E0909303028093020280916A009E
:100FB000837F846080936A00ED9AECCF7093350252
:100FC0006093340282EA94E090930B0280930A02C9
:100FD000809169008F73806480936900EB9ADACF07
:100FE0000F931F93CF93DF93EC01062F142F62E032
:100FF000802F0E94570362E0812F0E945703802FA9
:1010000090E0FC01EE50FE4FE491F0E0EE0FFF1F88
:10101000EC55FE4FA591B491B983A883FC01E85C1F
:10102000FD4F24912C83812F90E0FC01EE50FE4F68
:10103000E491F0E0EE0FFF1FEC55FE4F4591549107
:101040005B834A83FC01E85CFD4FE491ED831F82E2
:10105000188619861A868BE39FE10197F1F78C9128
:10106000282391E009F490E0DA018C91E82309F05B
:1010700092609E83BE01802F0E949C078B87BE01D9
:10108000812F0E949C079B85890F8B87DF91CF91D1
:101090001F910F910895EAE4F2E01382128288EE24
:1010A00093E0A0E0B0E084839583A683B7838AE1D0
:1010B00092E09183808385EC90E09587848784EC2F
:1010C00090E09787868780EC90E0918B808B81EC15
:1010D00090E0938B828B82EC90E0958B848B86ECF6
:1010E00090E0978B868B118E128E138E148E43E1B7
:1010F00062E189EF92E00E94F0074BE062E08DEE42
:1011000092E00E94F00787EE92E00C948D05CF9359
:10111000DF93CDB7DEB762970FB6F894DEBF0FBE90
:10112000CDBF789484B5826084BD84B5816084BD70
:1011300085B5826085BD85B5816085BD80916E0075
:10114000816080936E0010928100809181008260A6
:1011500080938100809181008160809381008091E3
:1011600080008160809380008091B10084608093D2
:10117000B1008091B00081608093B00080919100B7
:1011800082608093910080919100816080939100B2
:10119000809190008160809390008091A100826096
:1011A0008093A1008091A10081608093A100809133
:1011B000A00081608093A0008091210182608093D3
:1011C0002101809121018160809321018091200182
:1011D00081608093200180917A00846080937A00FE
:1011E00080917A00826080937A0080917A00816099
:1011F00080937A0080917A00806880937A001092C0
:10120000C100E0915A02F0915B0282E08083E0919C
:101210005A02F0915B021082E0915602F09157025F
:101220001082E0915802F091590280E1808310927F
:101230006202E0915E02F0915F0286E08083E091BD
:101240005C02F0915D02808180618083E0915C02AC
:10125000F0915D02808188608083E0915C02F09172
:101260005D02808180688083E0915C02F0915D0284
:1012700080818F7D808361E08DE20E94570361E071
:1012800085E00E94570361E08EE20E94570361E00F
:101290008CE20E94570361E084E00E94570361E002
:1012A00083E00E94570360E08EE20E94CB0260E080
:1012B0008CE20E94CB0260E084E00E94CB0260E0FE
:1012C00083E00E94CB028AE492E00E94F5011816A6
:1012D00019060CF06CC18AE492E00E94D301682FD9
:1012E00087EE92E00E944E0580914802909149025B
:1012F000019690934902809348028F709927892B19
:1013000011F71E861D86188A1F861A8A198A60910F
:10131000E7027091E8026115710541F04091EB021E
:101320005091EC02CE010D960E946205CE01079607
:101330000E948D05CE0101960E948D0510E000E00F
:10134000F12C89899A890817190738F5ED85FE85EA
:101350003097B9F410923F02EFE3F2E060816C3213
:10136000C9F0862F062E000C990BF1100DC0885283
:10137000924021F0CE0107960E944E050F5F1F4F4D
:10138000E0CFE00FF11FEACF88529240B9F3CE01CF
:101390000196F2CFFF24F394F1CF8F8198850097C7
:1013A00009F4CFC00E94DE0A7B0189819A810097EF
:1013B00009F4CBC00E94DE0A8B01F7FECAC061E0CF
:1013C0008EE20E94CB0260E08CE20E94CB02F1949C
:1013D000E194F10817FFCAC061E084E00E94CB02EB
:1013E00060E083E00E94CB02119501951109B701DD
:1013F0008DE20E948803B80185E00E948803CE0137
:1014000001960E94C604CE0107960E94C604CE0132
:101410000D960E94C604CE0101960E948D058FB7DD
:10142000F89440913B0250913C0260913D027091D2
:101430003E028FBF8091F802823008F0A4C0F89479
:101440008DEE92E00E9460048091F4029091F5028A
:10145000A091F602B091F702789440914402509125
:1014600045026091460270914702481759076A0782
:101470007B0741F08093440290934502A09346027B
:10148000B093470240914402509145026091460258
:1014900070914702CE0101960E941D0541E050E087
:1014A00068E272E0CE0101960E94F6048091040386
:1014B000823008F06AC0F89489EF92E00E946004DC
:1014C0008091000390910103A0910203B091030366
:1014D0007894409140025091410260914202709193
:1014E0004302481759076A077B0741F0809340027F
:1014F00090934102A0934202B09343024091400274
:10150000509141026091420270914302CE010196D6
:101510000E941D0510E000E08D819E8108171907CB
:10152000C8F5E981FA81309791F510923F02EFE317
:10153000F2E060818AE492E00E942D020F5F1F4F6B
:10154000EBCF60E070E0CB012FCF60E070E0CB012B
:1015500033CFE114F10409F43DCF60E08EE20E9444
:10156000CB0261E08CE20E94CB0234CF0115110561
:1015700009F43DCF60E084E00E94CB0261E083E0AB
:101580000E94CB0234CFF8945FCFF89499CFE00F4C
:10159000F11FCFCF50E040E069E272E087EE92E0C9
:1015A0000E946205CE0101960E94C6048CCE0E9464
:1015B0009A0289CE87EE92E00C94C6041F93FC0138
:1015C00099278827BC01E89411911032E9F319306A
:1015D00010F01E30C8F31B3251F01D3249F46894EC
:1015E00006C00E94140B610F711D811D911D119188
:1015F00010531A30B0F33EF4909580957095619534
:101600007F4F8F4F9F4F1F910895BB272A3051F472
:10161000992342F4BDE290958095709561957F4F36
:101620008F4F9F4F0C942A0B592F482F372F262F5F
:10163000660F771F881F991F660F771F881F991FD6
:10164000620F731F841F951F660F771F881F991FD6
:101650000895BB27FA01A62F621771058105910530
:10166000330B30FB66F0AA27660F771F881F991F80
:10167000AA1FA21710F0A21B63953850A9F7A05D0E
:10168000AA3308F0A95DA19336F7B111B193108286
:10169000CA010C944B0BDC01FC01672F719177237D
:1016A000E1F7329704C07C916D9370836291AE171D
:1016B000BF07C8F30895EE0FFF1F881F8BBF079069
:1016C000F691E02D19940F931F93CF93DF938230FF
:1016D000910510F482E090E0E0910703F091080397
:1016E00030E020E0B0E0A0E0309799F4211531051A
:1016F00009F44AC0281B390B24303105D8F58A81FA
:101700009B816115710589F1FB0193838283FE0141
:1017100011C0408151810281138148175907E0F0BF
:101720004817590799F4109761F012960C93129785
:1017300013961C933296CF01DF91CF911F910F9199
:1017400008950093070310930803F4CF2115310582
:1017500051F04217530738F0A901DB019A01BD018E
:10176000DF01F801C1CFEF01F9CF90930803809317
:101770000703CDCFFE01E20FF31F81939193225017
:10178000310939832883D7CF20910503309106038F
:10179000232B41F42091120230911302309306035F
:1017A000209305032091100230911102211531057B
:1017B00041F42DB73EB74091140250911502241BFD
:1017C000350BE0910503F0910603E217F307A0F44F
:1017D0002E1B3F0B2817390778F0AC014E5F5F4F87
:1017E0002417350748F04E0F5F1F509306034093B0
:1017F0000503819391939FCFF0E0E0E09CCFCF93DE
:10180000DF930097E9F0FC01329713821282A091D6
:101810000703B0910803ED0130E020E01097A1F438
:1018200020813181820F931F20910503309106039F
:101830002817390709F061C0F0930603E093050308
:10184000DF91CF910895EA01CE17DF07E8F54A81CD
:101850005B819E0141155105B1F7E901FB83EA83E4
:1018600049915991C40FD51FEC17FD0761F4808190
:1018700091810296840F951FE90199838883828163
:1018800093819B838A83F0E0E0E012968D919C9196
:1018900013970097B9F52D913C911197CD010296C0
:1018A000820F931F209105033091060328173907F3
:1018B00039F6309751F51092080310920703B09350
:1018C0000603A0930503BCCFD383C283408151811B
:1018D000840F951FC817D90761F44E5F5F4F888149
:1018E0009981480F591F518340838A819B8193833B
:1018F00082832115310509F0B0CFF0930803E093FE
:1019000007039ECFFD01DC01C0CF13821282D7CF27
:101910004F925F926F927F928F929F92AF92BF92FF
:10192000CF92DF92EF92FF920F931F93CF93DF93AB
:101930008C01009799F4CB01DF91CF911F910F910A
:10194000FF90EF90DF90CF90BF90AF909F908F90DF
:101950007F906F905F904F900C94630BFC01E60FAB
:10196000F71F9C0122503109E217F30708F4AEC0BB
:10197000D901CD91DC911197C617D70720F1C53059
:10198000D10578F0CE0104978617970750F0C61B53
:10199000D70B2297C193D1936D937C93CF010E9473
:1019A000FF0BC801DF91CF911F910F91FF90EF9036
:1019B000DF90CF90BF90AF909F908F907F906F906F
:1019C0005F904F9008955B01AC1ABD0A4C018C0EDC
:1019D0009D1EA0910703B0910803512C412CF12CBE
:1019E000E12C109731F5809105039091060388153D
:1019F000990509F05CC04616570608F058C080915A
:101A0000100290911102009741F48DB79EB740915A
:101A1000140250911502841B950BE817F90708F082
:101A200055C0F0930603E0930503F90171836083C9
:101A3000B8CF8D919C91119712966C901297139636
:101A40007C901397A815B90559F56C0142E0C40EB6
:101A5000D11CCA14DB0420F1AC014A195B09DA017C
:101A60001296159780F06282738251834083D90168
:101A70006D937C93E114F10471F0D7011396FC93FC
:101A8000EE9312978ECF22968C0F9D1FF9019183B2
:101A90008083F301EFCFF0930803E093070381CF36
:101AA0004816590608F42C017D01D3019ACFCB01C9
:101AB0000E94630B7C01009749F0AE01B8010E94BF
:101AC000690DC8010E94FF0B87016BCF10E000E099
:101AD00068CFFB01DC0102C001900D9241505040E3
:101AE000D8F70895FB01DC0101900D920020E1F789
:101AF000089511E0C3E6D1E000E006C0802FFE01AA
:101B00000E945B0B2196011DC436D10780E00807B7
:061B1000A9F7F894FFCFD5
:101B16005F045F045F045F045F045F045F045F04A7
:101B2600000009038000000000002D029701C40197
:0A1B36007A02F501D301E7012C004B
:00000001FF
